:020000040800F2
:1000000000200020D1050008AD050008AF0500085C
:1000100000000000000000000000000000000000E0
:10002000000000000000000000000000B105000812
:100030000000000000000000B3050008B50500083E
:100040002106000800000000210600082106000823
:1000500021060008210600082106000821060008E4
:100060000000000021060008BD0500082106000868
:1000700021060008210600082106000800000000F3
:1000800021060008210600080000000021060008E3
:1000900021060008210600082106000821060008A4
:1000A0002106000821060008210600082106000894
:1000B0002106000800000000000000000000000011
:1000C00010B5064C2378002B07D1054B002B02D02E
:1000D000044800E000BF0123237010BD0C00002085
:1000E00000000000EC190008044B10B5002B03D0F1
:1000F0000349044800E000BF10BDC04600000000F6
:1001000010000020EC190008002243088B4274D331
:1001100003098B425FD3030A8B4244D3030B8B4208
:1001200028D3030C8B420DD3FF22090212BA030C11
:100130008B4202D31212090265D0030B8B4219D3F2
:1001400000E0090AC30B8B4201D3CB03C01A524112
:10015000830B8B4201D38B03C01A5241430B8B425A
:1001600001D34B03C01A5241030B8B4201D30B0343
:10017000C01A5241C30A8B4201D3CB02C01A52416A
:10018000830A8B4201D38B02C01A5241430A8B422D
:1001900001D34B02C01A5241030A8B4201D30B0216
:1001A000C01A5241CDD2C3098B4201D3CB01C01A30
:1001B000524183098B4201D38B01C01A524143093A
:1001C0008B4201D34B01C01A524103098B4201D328
:1001D0000B01C01A5241C3088B4201D3CB00C01A95
:1001E000524183088B4201D38B00C01A524143080D
:1001F0008B4201D34B00C01A5241411A00D2014632
:10020000524110467047FFE701B5002000F006F8A4
:1002100002BDC0460029F7D076E770477047C04658
:1002200010B5042101F052FB0022014B1A7010BDE1
:100230002800002030B5034C800025186970AA7092
:10024000235430BDB004002070B50400802326255F
:10025000132620342A000B4200D1320004C05B0870
:10026000A042F7D170BD0000114870B5002506000E
:10027000104CA178FFF7E8FF6178FFF7E5FF013543
:100280002178FFF7E1FF04340C2DF2D100230A4C52
:1002900003600133237022233200FF330421074817
:1002A00001F094FA2378012B00D1FEE770BDC0461F
:1002B0002C000020B004002028000020240500208D
:1002C00010B500240B4B1C70002320001A001900ED
:1002D0000134FFF7AFFFA3B224B20C2BF4D1FF22FD
:1002E0000021054B05489A70054A198001F052FB20
:1002F00010BDC04628000020B00400202C000020C3
:100300008404000070B5102690B02C22002105A8AE
:1003100001F040FB32000021684601F03BFBA023C6
:10032000022401259B0304A80494079508960C94C5
:100330000E9300F0AFFB002801D072B6FEE7072352
:1003400002900390290068460093019400F0C6FDD6
:10035000002801D072B6FEE710B070BD70B598B03D
:1003600000F084F9FFF7ACFFFFF7CCFF8021504B82
:1003700089025A690A200A435A615A690A400121CE
:100380000292029A5A690A435A6100225B690B4041
:1003900001931100019B00F09DF90A2000F0C4F9BF
:1003A0001022002105A801F0F5FA0822002103A877
:1003B00001F0F0FA1C22002109A801F0EBFA20223A
:1003C000002110A801F0E6FA3A4C3B4B3B22236097
:1003D000002320006360A360E26023616361A36186
:1003E00000F088FF002801D072B6FEE780232000CD
:1003F0005B0105A9059301F079F8002801D072B6D8
:10040000FEE7200000F09EFF002801D072B6FEE754
:100410000390049003A9200001F05CFA002801D0A9
:1004200072B6FEE760230A900B900C900D900E9030
:100430000F900422200009A9099300F0EBFF002887
:1004400001D072B6FEE780231090119012901390A5
:1004500014909B01179010A92000159301F068FAE1
:10046000002801D072B6FEE7200000F077F8802661
:10047000642000F01DF9FF2576420B2420B20023F2
:1004800040228021013CFFF7D5FE002CF6D101224D
:100490000A4B52421E809C709C809D711D819C72F3
:1004A0009A819C73FFF7E0FE642000F001F9E4E715
:1004B0000010024024050020002C0140B004002060
:1004C00072B6FEE701210A4B82B09A690A439A612B
:1004D0009A690A4080210092009ADA6949050A4324
:1004E000DA61DB690B400193019B02B07047C046A3
:1004F0000010024037B5154B026805009A4223D11F
:100500008023134A1B019169124C1943916192692E
:1005100080211A400192019A0F4A636122601022E1
:10052000C02362600022E1608131FF319B01200025
:10053000A2602161A261E36100F01CF9002801D0F2
:10054000FFF7BEFFAC62656237BDC046002C0140BC
:1005500000100240E00400203000024010B504000A
:1005600086B01422002101A801F014FA0D4B226874
:100570009A4215D180210C4B89025A6990200A4376
:100580005A615B69C0050B400093009B80239B0070
:100590000193FF3BFF3B01A90293059300F0C2F9D1
:1005A00006B010BD002C014000100240FEE7FEE73F
:1005B0007047704710B500F069F810BD10B50248DB
:1005C00000F067F910BDC046E0040020704700004D
:1005D0000D488546FFF7FAFF0C480D490D4A0023E8
:1005E00002E0D458C4500433C4188C42F9D30A4AE8
:1005F0000A4C002301E013600432A242FBD301F055
:10060000D1F9FFF7ABFEFEE700200020000000203C
:100610000C0000203C1A00080C000020700500208F
:10062000FEE7000070B50500FA200D4B8000197838
:10063000FFF76AFD0B4C01002068FFF765FD00F035
:100640007FF804000120002C09D1032D07D80238BF
:100650002200290000F03EF82000034B1D6070BD11
:100660000400002000000020080000201023064A9B
:1006700010B5116803200B431360FFF7D3FFFFF79A
:1006800021FF002010BDC04600200240034A044B59
:1006900011681B785B1813607047C0466C0500201A
:1006A00004000020014B18687047C0466C0500200C
:1006B00070B50400FFF7F6FF0500631C02D0044B81
:1006C0001B78E418FFF7EEFF401BA042FAD370BD81
:1006D0000400002010B5FF2403220B00210002407B
:1006E000D20091409B012340C943934000280ADB7C
:1006F000C0240B4A800880008018A40002590A40D8
:100700001343035110BD0F2210400838054A8008DA
:1007100080008018C26911401943C161F2E7C046E8
:1007200000E100E000ED00E0002805DB1F23184099
:100730001E3B8340014A13607047C04600E100E061
:100740008022431E5204012093420DD2C021074A49
:1007500007485360036A09061B021B0A0B43036226
:1007600000200723906013607047C04610E000E04F
:1007700000ED00E070B504000120002C24D002231D
:10078000A51CEB772068114B0268A1681A406368CA
:100790000B43E1680B4321690B4361690B43A1697A
:1007A0000B43E1690B4313430360094B1421C01849
:1007B000FFF7AAFC074B80002064E36300200123BD
:1007C000A063E418EB77E07770BDC0460FC0FFFF71
:1007D000F8FFFDBF00000240F7B5441C0193E57F20
:1007E000012D33D00125871CE577FD7F0026AC461F
:1007F0006346EDB2012B28D10224FC77046886639E
:100800002668076CAE43BD402660019BC66B7560D1
:1008100063604368102B0ED1A260E160C36A226856
:10082000002B0BD00E2313432360012300202268EA
:1008300013432360FEBDA160E260EFE70A23134388
:100840000422236023689343EEE7E6770220F1E772
:1008500070B5841CE37F022B03D004238363012043
:1008600070BD0E2103681A688A431A6001221500C0
:10087000196891431960016CC36B8D405D60E2772C
:1008800083180022DA77436B934200D09847002008
:10089000E6E7F8B504273E00016CC26B8E40156890
:1008A00003681C6835420DD03C420BD0196889069C
:1008B00002D41968B9431960C36A5660002B19D075
:1008C000984717E002273E008E40354213D03C4245
:1008D00011D01968890606D40A241968A143196041
:1008E0000121C319D97756600022431CDA77836A45
:1008F0009342E5D1F8BD082637008F403D42F9D03C
:100900003442F7D00E251C68AC431C6001231C0048
:100910008C405460821C8363D3770022C318DA773B
:10092000036BE5E70023F0B587B00A681400DC40EC
:1009300001D107B0F0BD012514009D402C4000946A
:100940002A4200D198E04A685F0094460322644638
:1009500022400324BC40E4430194541E012C2ED8B1
:100960008668019C2640CC68BC403443846044685F
:100970000126AC4325006446240934409C402C43A6
:100980004460C568019C25408C68BC402C43C46011
:10099000022A16D107250F261D40AD00AE40DC0807
:1009A000A40004190294246A03962600039CA6431B
:1009B00034000E69AE402643029C266201E0032A01
:1009C000DFD1BA400468019D25402A43C02402605B
:1009D0006246A40222424FD00125284A90279469FA
:1009E000FF052C43946192699C082A400592059A60
:1009F000234AA400A4180F2202351D40AD00AA40CE
:100A0000A66896430022B8420CD01E4F0132B8426D
:100A100008D01D4F0132B84204D01C4F0332B842F7
:100A200000D1023AAA4067463243A260184A009CAD
:100A30009668009DE4433543FF0201D4350025400C
:100A400067469560D668009D3543BF0201D43500E6
:100A500025406746D5605668009D3543BF0301D4E5
:100A600035002540674655601568009E2E43FF03FC
:100A700001D425402E001660013356E700100240D5
:100A8000000001400004004800080048000C004835
:100A900000040140F0B5040085B0002845D003688B
:100AA000DB072FD423689B0700D581E023681B0751
:100AB00000D5BCE023685B0700D5DFE02368DB06D8
:100AC0001AD562690423B44D012A00D048E1696B4C
:100AD00002270B436B636B6B1A436A63FFF7E2FDFC
:100AE00006006B6B3B4200D133E1F8216A6BA369CE
:100AF0008A43DB0013436B63236A002B00D057E16A
:100B000000202AE00C22A44D6B681340042B06D071
:100B10006B681340082B0AD16B68DB0307D52B6881
:100B20009B03BFD56368002BBCD1012015E063682F
:100B3000012B14D180232A685B0213432B60FFF73B
:100B4000B1FD80270600BF022B683B42AAD1FFF708
:100B5000A9FD801B6428F7D9032005B0F0BD002B48
:100B600016D12B688D4A802713402B602B688C4A46
:100B7000BF0213402B60FFF795FD06002B683B4238
:100B800000D18FE7FFF78EFD801B6428F6D9E3E7DD
:100B9000052B05D180232A68DB0213432B60C9E7AC
:100BA0002B687E4A13402B602B687D4A1340C5E7B3
:100BB0000C22794D6B68134206D06B681340082BEA
:100BC00010D16B68DB030DD42B689B0702D5E3685B
:100BD000012BAAD1F8212A6823698A43DB00134339
:100BE0002B6063E7E2680123002A0FD02A680227FE
:100BF00013432B60FFF756FD06002B683B42E9D1FB
:100C0000FFF750FD801B0228F7D9A5E72A680227C5
:100C10009A432A60FFF746FD06002B683B4200D14D
:100C200044E7FFF73FFD801B0228F6D994E7E2690D
:100C30000123594D002A10D06A6A022713436B62C0
:100C4000FFF730FD06006B6A3B4200D032E7FFF74A
:100C500029FD801B0228F6D97EE76A6A02279A439B
:100C60006A62FFF71FFD06006B6A3B4200D121E775
:100C7000FFF718FD801B0228F6D96DE780220021BE
:100C8000454D5205EB690091134208D1EB691343BE
:100C9000EB61EB6913400393039B012300938027CF
:100CA000404E7F0033683B4215D0A368012B22D110
:100CB0002A6A13432B62FFF7F5FC022706002B6A12
:100CC0003B423FD0009B012B00D0F7E6EB69364A50
:100CD0001340EB61F2E633683B433360FFF7E2FC1D
:100CE000019033683B42E0D1FFF7DCFC019BC01A66
:100CF0006428F6D930E70122002B14D12B6A022791
:100D000093432B622B6A033293432B62FFF7CAFC97
:100D100006002B6A3B42D5D0FFF7C4FC234B801B57
:100D20009842F6D918E7052B05D1296A013B0B43F8
:100D30002B622B6ABDE72B6A934304222B622B6A3A
:100D40009343B7E7FFF7AEFC184B801B9842B6D928
:100D500002E7FFF7A7FC801B022800D8C1E6FBE6EC
:100D6000053203D16A6B9A436A63BEE66A6B022757
:100D7000134301226B636B6B93436B63FFF792FC2E
:100D800006006B6B3B4200D1B6E6FFF78BFC801B85
:100D90000228F6D9E0E6C04600100240FFFFFEFF41
:100DA000FFFFFBFF00700040FFFFFFEF8813000014
:100DB0000C21344D6A680A40082A47D0324A022B77
:100DC00032D12B68802713402B60FFF76BFC0600A5
:100DD000BF042B683B4221D10F22EB6A802693434C
:100DE000E26AB6041343EB62616AA36A6A680B4362
:100DF00026490A4013436B6080232A685B0413432F
:100E00002B60FFF74FFC04002B68334200D077E6DD
:100E1000FFF748FC001B0228F6D99DE6FFF742FCCD
:100E2000801B0228D5D997E62B68802613402B60BB
:100E3000FFF738FC0400B6042B68334200D15FE6AC
:100E4000FFF730FC001B0228F6D985E6012B00D104
:100E50006BE680226868616A5202EB6A02408A424D
:100E600000D062E60F221340E26A934200D05CE6B3
:100E7000F0239B031840A36AC01A431E9841C0B2D6
:100E80006BE6C04600100240FFFFFFFEFFFFC2FFFF
:100E90000C2270B50C4D6B681A40082A11D10F2036
:100EA0000A499A0C02408C5CEA6ADB0307D50849C0
:100EB0000240895C0748FFF727F9604370BD064888
:100EC000FBE70448FAE7C04600100240241A000875
:100ED000141A000800127A0000093D00F7B504005A
:100EE0000E00002801D10120FEBD0122374D2B68E4
:100EF00013408B421CD32268930722D4D2072FD4ED
:100F000001232A681A40B24251D82368304D5B074A
:100F100054D4FFF7BDFF6B682E4A1B061B0FD35C32
:100F20002D49D84008600320FFF77CFB0020DBE759
:100F30002B6893430B432B602B6813408B42D2D119
:100F4000D9E72349530704D5E0234868DB0003436E
:100F50004B60F0204B688343A06803434B60CDE7B0
:100F60001B4F62683B68012A19D19B03BBD5032143
:100F70007B688B4313437B60FFF794FB01900C234A
:100F80007A681A4063689B009A42B9D0FFF78AFBDF
:100F9000019BC01A114B9842F1D90320A4E7022A01
:100FA00002D19B01E3D49EE79B07E0D49BE72A682C
:100FB0009A432A602A681A42A7D094E76B68084AC5
:100FC0001340E26813436B60A3E7C0460020024071
:100FD00000100240041A00080000002088130000DE
:100FE000FFF8FFFF70B50124036A026AA2430262A0
:100FF00073224468856995430A6815430222934326
:101000008A6813430E4A904208D00E4A904205D097
:101010000D4A904202D00D4A90420BD108229343D0
:10102000CA688E69134304229343094A22404C69DB
:10103000344314434A68446085614263036270BD6F
:10104000002C0140004001400044014000480140A4
:10105000FFFCFFFF70B5184A056A036A134003627C
:1010600073234268C4699C430B681C43134B1D40A7
:101070008B681B022B43124DA8420ED1114D1D400F
:10108000CB681B022B43104D2B40104D8E69154031
:101090004A69324312012A4308E00D4DA842F4D0B8
:1010A0000C4DA842F1D00C4DA842EED042604A68E7
:1010B000C461C263036270BDFFFEFFFFFFFDFFFF5F
:1010C000002C0140FFF7FFFFFFFBFFFFFFCFFFFFFB
:1010D00000400140004401400048014030B5144A3E
:1010E000046A036A134D134003624368C2692A40CD
:1010F0000D682D021543104A14408A6812032243DA
:101100000E4CA04208D00E4CA04205D00D4CA0427F
:1011100002D00D4CA04204D10C4C1C404B699B01E9
:10112000234343604B68C5610364026230BDC0461F
:10113000FFEFFFFFFF8CFFFFFFDFFFFF002C0140F1
:10114000004001400044014000480140FFBFFFFF54
:10115000704710B5446A626A82420DD10123237739
:101160009269002A02D122003E3213702000FFF75C
:1011700057F80023237710BDA36A834209D10222C6
:1011800022779B69002BF1D12300013A3F331A707B
:10119000ECE7E36A834208D1042222779B69002BA3
:1011A000E4D12300033A4033F1E7236B8342DDD1DE
:1011B000082222779B69002BD8D12300073A4133BC
:1011C000E5E7704710B5446A636A834207D101239B
:1011D00023772000FFF7F5FF0023237710BDA36AD4
:1011E000834201D10223F3E7E36A834201D104235E
:1011F000EEE7236B8342ECD10823E9E7704710B593
:10120000446A636A834205D10123220023773E3278
:10121000137008E0A36A83420BD1022323772300D3
:1012200001223F331A702000FFF7E8FF00232377E5
:1012300010BDE26A0123824204D1042222772200F7
:101240004032E5E7226B824204D108222277220055
:101250004132DDE722003D32DAE7000010B51E4CD6
:101260000368A0420AD01D4A904207D01C4A90420F
:1012700009D11C4A1A40CB6813430DE070229343F6
:101280004A681343F5E7184A9042F2D0174A904251
:10129000EFD0174A9042ECD0802293434A6913431F
:1012A00003608B68C3620B688362A04208D00E4B58
:1012B000984205D00D4B984202D00D4B984201D177
:1012C0000B690363012242610369134202D003697F
:1012D0009343036110BDC046002C01400004004050
:1012E00000200040FFFCFFFF00400140004401409F
:1012F0000048014070B504000120002C21D02500D9
:101300003D352B78DAB2002B05D123003C33200089
:101310001A70FFF7EFF802232B702068211DFFF7EA
:101320009DFF220001230020463213704534083A05
:10133000137053709370D370137153719371237042
:101340002B7070BD70B504000120002C21D0250049
:101350003D352B78DAB2002B05D123003C33200039
:101360001A70FFF7F5FE02232B702068211DFFF78E
:1013700075FF220001230020463213704534083ADD
:10138000137053709370D3701371537193712370F2
:101390002B7070BD102270B5056A036A174C934319
:1013A00003624268836923400C6824021C432023A3
:1013B0009D438B681B012B43114DA8420FD1802503
:1013C000AB431E00CB68403D1B013343AB430D4D87
:1013D0008E6915404A69324392002A4308E00A4D5B
:1013E000A842F4D0094DA842F1D0094DA842EED050
:1013F00042604A6884618263036270BDFF8CFFFFB4
:10140000002C0140FFF3FFFF004001400044014079
:1014100000480140F8B506003C361500327803005C
:101420000C000220012A0AD001383070082D3FD06C
:1014300006D8002D19D0042D29D000233370F8BD13
:101440000C2DFAD11D682800FFF748FE8023EA69B9
:101450001B011343EB61EB691D4A1340EB612369E8
:10146000EA691B021343EB610FE01D682800FFF7D8
:10147000B9FD0823AA6913430422AB61AB69934306
:10148000AB61AB6922691343AB610020D5E71D68EE
:101490002800FFF77FFF8023AA691B011343AB617C
:1014A000AB690B4A1340AB612369AA691B02EAE7E7
:1014B0001F683800FFF7CEFD0422FB691D43FD6164
:1014C000FB699343FB61FB6922691343FB61DCE722
:1014D000FFFBFFFF30B58468034D0A431B022C401D
:1014E00013432343836030BDFF00FFFFF8B50500C1
:1014F00002223C352C7803001000012C1BD01E006A
:1015000001383D36287032701C68414AA368134088
:10151000A3600B68602B4ED02DD8402B62D013D81F
:10152000202B0BD008D810221900914306D001239C
:10153000337000232B70F8BD302BF8D17021A268D6
:101540008A431343072228E0502BF0D14A68CB6826
:10155000216A276A1B0187432762F027A069B843E5
:1015600003430A20A361702381430A432262A268D5
:101570009A43193B11E08022520193420FD08022FE
:10158000920193420DD0702BD1D1CB684A682000D4
:101590008968FFF79FFF7723A2681343A3600020A9
:1015A000C5E7CB684A6820008968FFF793FF80236E
:1015B000A268DB01F1E710274B68CA68216A206A3C
:1015C0001203B8432062A069124F1B013840024346
:1015D000A02081430B43A26123627023A2689A4337
:1015E000093BDAE74A68CB68216A276A1B0187430F
:1015F0002762F027A069B84303430A20A361702340
:1016000081430A432262A2689A43293BC5E7C04648
:101610008800FFFFFF0FFFFF1F2310B501241940B3
:101620008C408A40036AA3430362036A1A4302623E
:1016300010BD000070B50E00050011000200002E64
:1016400009D13E3214780220023C62425441E4B295
:10165000002C0AD070BD042E01D13F32F2E7082ED3
:1016600001D14032EEE74132ECE72A00002E09D1E9
:101670003E321278013A50424241D2B2002A0BD196
:101680000120E7E7042E01D13F32F2E7082E01D115
:101690004032EEE74132ECE70029F1D0002BEFD0E9
:1016A00002222800002E38D13E300270686A3F4A7C
:1016B00082623F4AC2623F4A02632A683432FFF7BD
:1016C0008BF80028DCD180232A689B00D1682C6825
:1016D0000B43D360310001222000FFF79DFF364A03
:1016E000944208D0354B9C4205D0354B9C4202D0E9
:1016F000344B9C4258D18023616C1B020B436364C2
:1017000094424DD10722A3681340062B03D0012336
:1017100022681343236000209CE7042E13D13F303E
:101720000270A86A214A8262214AC262214A026387
:101730002A683832FFF750F80028A1D180232A68A0
:10174000DB00D168C3E7082E13D140300270E86A8D
:10175000164A8262164AC262164A02632A683C32FC
:10176000FFF73AF800288BD180232A681B01D16843
:10177000ADE7413002700C2E82D1286B0B4A826299
:101780000B4AC2620B4A02632A684032FFF724F810
:10179000002800D074E780232A685B01D16896E7AF
:1017A000064B9C42B3D1ADE7074BFAE75311000853
:1017B000C5110008FF110008002C01400040014045
:1017C00000440140004801400004004010B5FFF70C
:1017D00031FF10BD70B504000E0008294ED005D8A9
:1017E00000290CD0042942D0012070BD0C29FBD166
:1017F00002682B49D368006B0B40D36005E0026898
:101800002849D368406A0B40D360FFF721F8256868
:10181000002231002800FFF7FFFE234B234A9D42A0
:1018200008D0234B9D4205D0224B9D4202D0224B33
:101830009D420AD12B6A134207D1296A1F4B1942D4
:1018400003D16B6C1E490B406B642B6A134207D1AA
:101850002A6A1A4B1A4203D101222B6893432B6048
:101860000123002E11D13E3400202370BDE7026811
:101870001449D368806A0B40D360C6E702681249F6
:10188000D368C06A0B40D360BFE7042E01D13F3458
:10189000EAE7082E01D14034E6E74134E4E7C046E8
:1018A000FFEFFFFFFFFDFFFF002C014011110000C3
:1018B0000040014000440140004801404404000051
:1018C000FF7FFFFFFFFBFFFFFFF7FFFF10B5FFF7F5
:1018D00081FF10BD70B5040002223C34257803005E
:1018E0001000012D1CD01D0070263D352A701B688C
:1018F00058689A68B0430E6830435860094883427C
:1019000005D00948834202D00848834204D1802090
:10191000496882430A439A60012300202B7020709B
:1019200070BDC046002C0140000400400040014052
:1019300010B504003C34237802000220012B1CD097
:10194000CB680E4812680340886803430C48034084
:10195000486803430B480340086803430A480340B0
:1019600008690343094803404869C96903430848B3
:10197000034000200B435364207010BDFFFCFFFFA9
:10198000FFFBFFFFFFF7FFFFFFEFFFFFFFDFFFFFA3
:10199000FFBFFFFF03008218934200D17047197008
:1019A0000133F9E770B500260C4C0D4D641BA410F3
:1019B000A64209D1002600F019F80A4C0A4D641B12
:1019C000A410A64205D170BDB300EB58984701366C
:1019D000EEE7B300EB5898470136F2E7341A0008F7
:1019E000341A0008381A0008341A0008F8B5C0463E
:1019F000F8BC08BC9E467047F8B5C046F8BC08BCA9
:041A00009E46704747
:101A040000000000000000000102030406070809AA
:101A14000102030405060708090A0B0C0D0E0F103A
:101A240002030405060708090A0B0C0D0E0F10101B
:041A3400E9000008BD
:041A3800C1000008E1
:0C1A3C0000127A0001000000040000000D
:04000005080005D119
:00000001FF
